:100000000C9434000C943E000C943E000C943E0082
:100010000C943E000C943E000C943E000C943E0068
:100020000C943E000C943E000C943E000C943E0058
:100030000C943E000C943E000C943E000C943E0048
:100040000C943E000C943E000C943E000C943E0038
:100050000C943E000C943E000C943E000C943E0028
:100060000C943E000C943E0011241FBECFEFD8E04C
:10007000DEBFCDBF0E9440000C94B1000C94000084
:100080008FEF87B9FFE3E6E07BE56FE456E64DE6E8
:100090003DEF27E09FE78FEEF8B9AFEFB3EDC0E398
:1000A000A150B040C040E1F700C00000E8B9AFEF98
:1000B000B3EDC0E3A150B040C040E1F700C0000084
:1000C00078B9AFEFB3EDC0E3A150B040C040E1F765
:1000D00000C0000068B9AFEFB3EDC0E3A150B0407D
:1000E000C040E1F700C0000058B9AFEFB3EDC0E386
:1000F000A150B040C040E1F700C0000048B9AFEFE8
:10010000B3EDC0E3A150B040C040E1F700C0000033
:1001100038B9AFEFB3EDC0E3A150B040C040E1F754
:1001200000C0000028B9AFEFB3EDC0E3A150B0406C
:10013000C040E1F700C0000098B9AFEFB3EDC0E3F5
:10014000A150B040C040E1F700C0000088B9AFEF57
:10015000B3EDC0E3A150B040C040E1F700C00000E3
:060160009BCFF894FFCFD5
:00000001FF
